S00A000042332E73726563A5
S113000045C000004BC0000049C0000047C00000CC
S113001045C0000043C0000041C000003FC00000D4
S11300203DC000003CC0000039C0000037C00000E3
S113003035C0000033C0000031C000002FC00000F4
S11300402DC000002BC0000029C0000027C0000004
S113005025C0000023C0000021C000001FC0000014
S11300601DC000001BC0000019C0000017C0000024
S113007015C0000013C0000011C000000FC0000034
S11300800DC000000BC0000009C0000011241FBEF9
S1130090CFEFD0E1DEBFCDBF1BD023C0B1CF1F92C5
S11300A00F920FB60F9211248F9383B5883719F0EE
S11300B0883C29F007C0979888EC83BD03C0979AC1
S11300C088E783BD8F910F900FBE0F901F901895F6
S11300D08F9A8DE085BD88E783BD80E887BF7894DB
S10900E0FFCFF894FFCFEE
S9030000FC
